:020000040801F1
:1000000000060020B9120108CD940A0829940A08B4
:1000100095940A0829940A0861940A08BB120108F9
:10002000BB120108BB120108BB12010819130D080D
:10003000BB120108BB120108BB120108BB12010868
:10004000BB120108BB120108BB120108BB12010858
:10005000BB120108BB120108951E0D08C11E0D0838
:10006000ED1E0D08191F0D08451F0D0829C70C08A6
:1000700051C70C087DC70C08A9C70C08D5C70C08C8
:10008000FDC70C0829C80C08DDC50C08BB12010807
:10009000BB120108BB120108BB120108711F0D0839
:1000A000BB120108BB120108BB120108BB120108F8
:1000B000BB120108BB12010859D70C08BB1201087A
:1000C000BB12010869CD0C0805CF0C08BB12010852
:1000D000BB120108ADDD0C08BB120108C1DD0C0824
:1000E000D91F0D08BB120108BB120108BB12010881
:1000F000BB120108BB120108BB12010855C80C084D
:10010000BB120108BB120108C9250D08BB1201086A
:10011000D5DD0C08BB120108BB120108BB12010897
:1001200081C80C08A9C80C08D5C80C0801C90C085E
:100130002DC90C08BB120108BB120108BB12010833
:10014000BB120108BB120108BB120108511A0D08AD
:1001500055C90C0881C90C08ADC90C08E9DD0C08AB
:10016000BB120108BB120108BB120108BB12010837
:10017000BB120108BB120108BB120108BB12010827
:10018000BB120108BB120108BB120108BB12010817
:10019000BB120108BB120108BB120108BB12010807
:1001A000BB120108BB120108BB120108BB120108F7
:1001B000BB120108BB120108BB120108BB120108E7
:1001C000BB120108BB120108BB120108BB120108D7
:1001D000BB120108BB120108BB120108BB120108C7
:1001E00059690108592C0308C15E0408410B06082F
:1001F00049110608B58C060875F1060841F906088C
:1002000095FC0608B5870708F13E0808394E08082E
:10021000595A080815630A083D680A086D8C0A08CF
:10022000D15F0B0815DC0B0845480C0805530C087A
:100230000D820C080D880C08000000000000000072
:1002400081F0004102E000BF83F0004330B54FEA87
:1002500041044FEA430594EA050F08BF90EA020FF4
:100260001FBF54EA000C55EA020C7FEA645C7FEA87
:10027000655C00F0E2804FEA5454D4EB5555B8BFAA
:100280006D420CDD2C4480EA020281EA030382EA1B
:10029000000083EA010180EA020281EA0303362DAD
:1002A00088BF30BD11F0004F4FEA01314FF4801C80
:1002B0004CEA113102D0404261EB410113F0004F92
:1002C0004FEA03334CEA133302D0524263EB430349
:1002D00094EA050F00F0A780A4F10104D5F1200EE7
:1002E0000DDB02FA0EFC22FA05F2801841F1000142
:1002F00003FA0EF2801843FA05F359410EE0A5F116
:1003000020050EF1200E012A03FA0EFC28BF4CF046
:10031000020C43FA05F3C01851EBE37101F00045FC
:1003200007D54FF0000EDCF1000C7EEB00006EEB09
:100330000101B1F5801F1BD3B1F5001F0CD3490893
:100340005FEA30004FEA3C0C04F101044FEA4452EA
:1003500012F5800F80F09A80BCF1004F08BF5FEA71
:10036000500C50F1000041EB045141EA050130BD51
:100370005FEA4C0C404141EB0101013C28BFB1F563
:10038000801FE9D291F0000F04BF01460020B1FAAE
:1003900081F308BF2033A3F10B03B3F120020CDA81
:1003A0000C3208DD02F1140CC2F10C0201FA0CF05F
:1003B00021FA02F10CE002F11402D8BFC2F1200CC4
:1003C00001FA02F120FA0CFCDCBF41EA0C0190407A
:1003D000E41AA2BF01EB0451294330BD6FEA0404C3
:1003E0001F3C1CDA0C340EDC04F11404C4F12002AE
:1003F00020FA04F001FA02F340EA030021FA04F3C0
:1004000045EA030130BDC4F10C04C4F1200220FA16
:1004100002F001FA04F340EA0300294630BD21FA54
:1004200004F0294630BD94F0000F83F4801306BF1A
:1004300081F480110134013D4EE77FEA645C18BF0E
:100440007FEA655C29D094EA050F08BF90EA020FA5
:1004500005D054EA000C04BF1946104630BD91EA9D
:10046000030F1EBF0021002030BD5FEA545C05D1A0
:100470004000494128BF41F0004130BD14F58004DF
:100480003CBF01F5801130BD01F0004545F0FE4153
:1004900041F470014FF0000030BD7FEA645C1ABF88
:1004A000194610467FEA655C1CBF0B46024650EABF
:1004B000013406BF52EA033591EA030F41F40021EB
:1004C00030BD00BF90F0000F04BF0021704730B571
:1004D0004FF4806404F132044FF000054FF0000146
:1004E00050E700BF90F0000F04BF0021704730B507
:1004F0004FF4806404F1320410F0004548BF4042DC
:100500004FF000013EE700BF42004FEAE2014FEA30
:1005100031014FEA02701FBF12F07F4393F07F4F0B
:1005200081F06051704732F07F4208BF704793F00E
:100530007F4F04BF41F40021704730B54FF4607421
:1005400001F0004521F000411CE700BF50EA010224
:1005500008BF704730B54FF000050AE050EA0102CD
:1005600008BF704730B511F0004502D5404261EB3D
:1005700041014FF4806404F132045FEA915C3FF47E
:10058000D8AE4FF003025FEADC0C18BF03325FEA1B
:10059000DC0C18BF033202EBDC02C2F1200300FACC
:1005A00003FC20FA02F001FA03FE40EA0E0021FAF1
:1005B00002F11444BDE600BF70B54FF0FF0C4CF4DF
:1005C000E06C1CEA11541DBF1CEA135594EA0C0F91
:1005D00095EA0C0F00F0DEF82C4481EA030621EACC
:1005E0004C5123EA4C5350EA013518BF52EA033507
:1005F00041F4801143F4801338D0A0FB02CE4FF0B9
:100600000005E1FB02E506F00042E0FB03E54FF0E8
:100610000006E1FB03569CF0000F18BF4EF0010EE0
:10062000A4F1FF04B6F5007F64F5407404D25FEADC
:100630004E0E6D4146EB060642EAC62141EA55518F
:100640004FEAC52040EA5E504FEACE2EB4F1FD0CD1
:1006500088BFBCF5E06F1ED8BEF1004F08BF5FEA4F
:10066000500E50F1000041EB045170BD06F0004601
:1006700046EA010140EA020081EA0301B4EB5C04AE
:10068000C2BFD4EB0C0541EA045170BD41F48011A6
:100690004FF0000E013C00F3AB8014F1360FDEBFCB
:1006A000002001F0004170BDC4F10004203C35DAA7
:1006B0000C341BDC04F11404C4F1200500FA05F32A
:1006C00020FA04F001FA05F240EA020001F00042CB
:1006D00021F0004110EBD37021FA04F642EB060141
:1006E0005EEA430E08BF20EAD37070BDC4F10C046B
:1006F000C4F1200500FA04F320FA05F001FA04F22F
:1007000040EA020001F0004110EBD37041F100011A
:100710005EEA430E08BF20EAD37070BDC4F1200525
:1007200000FA05F24EEA020E20FA04F301FA05F28D
:1007300043EA020321FA04F001F0004121FA04F235
:1007400020EA020000EBD3705EEA430E08BF20EA05
:10075000D37070BD94F0000F0FD101F0004640003F
:1007600041EB010111F4801F08BF013CF7D041EAC1
:10077000060195F0000F18BF704703F000465200C5
:1007800043EB030313F4801F08BF013DF7D043EA96
:100790000603704794EA0C0F0CEA135518BF95EA4C
:1007A0000C0F0CD050EA410618BF52EA4306D1D1D3
:1007B00081EA030101F000414FF0000070BD50EAF2
:1007C000410606BF1046194652EA430619D094EA7C
:1007D0000C0F02D150EA013613D195EA0C0F05D166
:1007E00052EA03361CBF104619460AD181EA0301BA
:1007F00001F0004141F0FE4141F470014FF0000072
:1008000070BD41F0FE4141F4780170BD70B54FF00C
:10081000FF0C4CF4E06C1CEA11541DBF1CEA13558C
:1008200094EA0C0F95EA0C0F00F0A7F8A4EB05046E
:1008300081EA030E52EA03354FEA013100F0888065
:100840004FEA03334FF0805545EA131343EA12632E
:100850004FEA022245EA111545EA10654FEA0026E3
:100860000EF000419D4208BF964244F1FD0404F59C
:10087000407402D25B084FEA3202B61A65EB0305F8
:100880005B084FEA32024FF480104FF4002CB6EBB5
:10089000020E75EB030E22BFB61A754640EA0C0035
:1008A0005B084FEA3202B6EB020E75EB030E22BF75
:1008B000B61A754640EA5C005B084FEA3202B6EBB6
:1008C000020E75EB030E22BFB61A754640EA9C0075
:1008D0005B084FEA3202B6EB020E75EB030E22BF45
:1008E000B61A754640EADC0055EA060E18D04FEA03
:1008F000051545EA16754FEA06164FEAC30343EAA3
:1009000052734FEAC2025FEA1C1CC0D111F4801F6F
:100910000BD141EA00014FF000004FF0004CB6E768
:1009200011F4801F04BF01430020B4F1FD0C88BF07
:10093000BCF5E06F3FF6AFAEB5EB030C04BFB6EB12
:10094000020C5FEA500C50F1000041EB045170BD05
:100950000EF0004E4EEA113114EB5C04C2BFD4EB32
:100960000C0541EA045170BD41F480114FF0000EB6
:10097000013C90E645EA060E8DE60CEA135594EA32
:100980000C0F08BF95EA0C0F3FF43BAF94EA0C0F35
:100990000AD150EA01347FF434AF95EA0C0F7FF4AA
:1009A00025AF104619462CE795EA0C0F06D152EAFE
:1009B00003353FF4FDAE1046194622E750EA4106E2
:1009C00018BF52EA43067FF4C5AE50EA41047FF4F3
:1009D0000DAF52EA43057FF4EBAE12E74FF0FF3C58
:1009E00006E000BF4FF0010C02E000BF4FF0010C29
:1009F0004DF804CD4FEA410C7FEA6C5C4FEA430CA2
:100A000018BF7FEA6C5C1BD001B050EA410C0CBFF0
:100A100052EA430C91EA030F02BF90EA020F002052
:100A2000704710F1000F91EA030F58BF994208BFB9
:100A300090422CBFD8176FEAE37040F00100704776
:100A40004FEA410C7FEA6C5C02D150EA013C07D1CD
:100A50004FEA430C7FEA6C5CD6D152EA033CD3D018
:100A60005DF8040B704700BF8446104662468C4612
:100A70001946634600E000BF01B5FFF7B7FF002845
:100A800048BF10F1000F01BD4DF808EDFFF7F4FF6E
:100A90000CBF012000205DF808FB00BF4DF808EDF9
:100AA000FFF7EAFF34BF012000205DF808FB00BF1C
:100AB0004DF808EDFFF7E0FF94BF012000205DF83E
:100AC00008FB00BF4DF808EDFFF7CEFF94BF0120F3
:100AD00000205DF808FB00BF4DF808EDFFF7C4FFEC
:100AE00034BF012000205DF808FB00BF4FEA410C35
:100AF0007FEA6C5C02D150EA013C0AD14FEA430C18
:100B00007FEA6C5C02D152EA033C02D14FF0000054
:100B100070474FF0010070474FEA410212F5001292
:100B200015D211D56FF47873B3EB625212D94FEA34
:100B3000C12343F0004343EA505311F0004F23FA1E
:100B400002F018BF404270474FF00000704750EA73
:100B5000013005D111F0004008BF6FF00040704730
:100B60004FF00000704700BF4A0011D212F500128A
:100B700011D20DD56FF47873B3EB62520ED44FEAF5
:100B8000C12343F0004343EA505323FA02F0704775
:100B90004FF00000704750EA013002D14FF0FF30B3
:100BA00070474FF0000070474FEA4102B2F1E04356
:100BB00024BFB3F5001CDCF1FE5C0DD901F0004C44
:100BC0004FEAC0024CEA5070B2F1004F40EB830094
:100BD00008BF20F00100704711F0804F21D113F1C0
:100BE0003872BCBF01F00040704741F480114FEAF9
:100BF0005252C2F11802C2F1200C10FA0CF320FA82
:100C000002F018BF40F001004FEAC1234FEAD3239E
:100C100003FA0CFC40EA0C0023FA02F34FEA430308
:100C2000CCE77FEA625307D150EA01331EBF4FF091
:100C3000FE4040F44000704701F0004040F0FE40AC
:100C400040F40000704700BF80F0004002E000BFA9
:100C500081F0004142001FBF5FEA410392EA030FA7
:100C60007FEA226C7FEA236C6AD04FEA1262D2EBF1
:100C70001363C1BFD218414048404140B8BF5B42F6
:100C8000192B88BF704710F0004F40F4000020F08F
:100C90007F4018BF404211F0004F41F4000121F0A5
:100CA0007F4118BF494292EA030F3FD0A2F10102EF
:100CB00041FA03FC10EB0C00C3F1200301FA03F12D
:100CC00000F0004302D5494260EB4000B0F5000F50
:100CD00013D3B0F1807F06D340084FEA310102F10F
:100CE0000102FE2A51D2B1F1004F40EBC25008BFC1
:100CF00020F0010040EA03007047490040EB00008B
:100D0000013A28BFB0F5000FEDD2B0FA80FCACF18B
:100D1000080CB2EB0C0200FA0CF0AABF00EBC250B8
:100D200052421843BCBFD0401843704792F0000FA6
:100D300081F4000106BF80F400000132013BB5E7F9
:100D40004FEA41037FEA226C18BF7FEA236C21D06F
:100D500092EA030F04D092F0000F08BF08467047D4
:100D600090EA010F1CBF0020704712F07F4F04D1A2
:100D7000400028BF40F00040704712F100723CBFB5
:100D800000F50000704700F0004343F0FE4040F4DF
:100D9000000070477FEA226216BF08467FEA23639D
:100DA0000146420206BF5FEA412390EA010F40F488
:100DB000800070474FF0000304E000BF10F00043D4
:100DC00048BF40425FEA000C08BF704743F09643BB
:100DD00001464FF000001CE050EA010208BF7047D6
:100DE0004FF000030AE000BF50EA010208BF70475D
:100DF00011F0004302D5404261EB41015FEA010C72
:100E000002BF84460146002043F0B64308BFA3F169
:100E10008053A3F50003BCFA8CF2083AA3EBC2534B
:100E200010DB01FA02FC634400FA02FCC2F120026A
:100E3000BCF1004F20FA02F243EB020008BF20F0A1
:100E40000100704702F1200201FA02FCC2F1200207
:100E500050EA4C0021FA02F243EB020008BF20EAFC
:100E6000DC7070477BB972B90029BEBF00204FF01B
:100E7000004106E008BF00281CBF6FF000414FF0A2
:100E8000FF3000F017BAADF1080C6DE904CE00296F
:100E900009DB002B1ADB00F0A5F8DDF804E0DDE942
:100EA000022304B07047404261EB4101002B1BDB81
:100EB00000F098F8DDF804E0DDE9022304B04042D8
:100EC00061EB4101524263EB43037047524263EBD3
:100ED000430300F087F8DDF804E0DDE9022304B005
:100EE000404261EB41017047524263EB430300F023
:100EF00079F8DDF804E0DDE9022304B0524263EB47
:100F00004303704753B94AB9002908BF00281CBFE2
:100F10004FF0FF314FF0FF3000F0CCB9ADF1080CCD
:100F20006DE904CE00F05EF8DDF804E0DDE90223AF
:100F300004B07047430803F05533C01A830803F028
:100F4000333300F03330184400EB101000F00F3052
:100F500000EB002000EB0040000E704780EA1040DC
:100F600080EA102080EA101046F6961300F00F0079
:100F700043FA00F000F00100704700BF07EE900A4E
:100F8000F5EEC07AF1EE10FA01D400F00BB8F1EEF4
:100F9000677A08B517EE900A00F004F8404261EB5A
:100FA000410108BDD0B5FFF7AFFA0C4B0022064651
:100FB0000F46FFF701FBFFF7D7FD0446FFF782FA64
:100FC000074B0022FFF7F8FA02460B463046394637
:100FD000FFF73AF9FFF7C8FD2146D0BD0000F03D0C
:100FE0000000F0412DE9F047089D04468E46002B95
:100FF0004DD18A42944669D9B2FA82F252B101FACD
:1010000002F3C2F1200120FA01F10CFA02FC41EADC
:10101000030E94404FEA1C48210CBEFBF8F61FFA61
:101020008CF708FB16E341EA034306FB07F19942FC
:101030000AD91CEB030306F1FF3080F01F819942AF
:1010400040F21C81023E63445B1AA4B2B3FBF8F089
:1010500008FB103344EA034400FB07F7A7420AD910
:101060001CEB040400F1FF3380F00A81A74240F238
:1010700007816444023840EA0640E41B00261DB1A3
:10108000D4400023C5E900433146BDE8F0878B42D8
:1010900009D9002D00F0EF800026C5E90001304697
:1010A0003146BDE8F087B3FA83F6002E4AD18B4271
:1010B00002D3824200F2F980841A61EB030301201B
:1010C0009E46002DE0D0C5E9004EDDE702B9FFDE07
:1010D000B2FA82F2002A40F09280A1EB0C014FEAB2
:1010E0001C471FFA8CFE0126200CB1FBF7F307FB0F
:1010F000131140EA01410EFB03F0884208D91CEBB2
:10110000010103F1FF3802D2884200F2CB8043464E
:10111000091AA4B2B1FBF7F007FB101144EA01442D
:101120000EFB00FEA64508D91CEB040400F1FF31BC
:1011300002D2A64500F2BB800846A4EB0E0440EAAA
:1011400003409CE7C6F12007B34022FA07FC4CEAB3
:10115000030C20FA07F401FA06F31C43F9404FEAA6
:101160001C4900FA06F3B1FBF9F8200C1FFA8CFEBB
:1011700009FB181140EA014108FB0EF0884202FA0F
:1011800006F20BD91CEB010108F1FF3A80F08880D0
:10119000884240F28580A8F102086144091AA4B28D
:1011A000B1FBF9F009FB101144EA014100FB0EFE0E
:1011B0008E4508D91CEB010100F1FF346CD28E453D
:1011C0006AD90238614440EA0840A0FB0294A1EBCE
:1011D0000E01A142C846A64656D353D05DB1B3EB2B
:1011E000080261EB0E0101FA07F722FA06F3F1405B
:1011F0001F43C5E9007100263146BDE8F087C2F102
:101200002003D8400CFA02FC21FA03F39140014379
:101210004FEA1C471FFA8CFEB3FBF7F007FB1036B2
:101220000B0C43EA064300FB0EF69E4204FA02F45E
:1012300008D91CEB030300F1FF382FD29E422DD9B1
:10124000023863449B1B89B2B3FBF7F607FB1633E6
:1012500041EA034106FB0EF38B4208D91CEB010166
:1012600006F1FF3816D28B4214D9023E6144C91AE6
:1012700046EA004638E72E46284605E70646E3E6F6
:101280001846F8E64B45A9D2B9EB020864EB0C0E00
:101290000138A3E74646EAE7204694E74046D1E70F
:1012A000D0467BE7023B614432E7304609E76444BD
:1012B000023842E7704700BF02E000F000F8FEE7A6
:1012C00072B63A4880F30888394880F3098839486B
:1012D0004EF60851CEF20001086040F20000CCF258
:1012E00000004EF63471CEF200010860BFF34F8F5C
:1012F000BFF36F8F40F20000C0F2F0004EF688514D
:10130000CEF200010860BFF34F8FBFF36F8F4FF035
:101310000000E1EE100A4EF63C71CEF200010860CA
:10132000062080F31488BFF36F8FC0F075F8C0F00B
:1013300051F8BFF009F94FF055301F491B4A91424F
:101340003CBF41F8040BFAE71C49194A91423CBFE3
:1013500041F8040BFAE71A491A4A1B4B9A423EBF5E
:1013600051F8040B42F8040BF8E700201749184A1B
:1013700091423CBF41F8040BFAE7C0F02FF8BFF0F0
:1013800037F9144C144DAC4203DA54F8041B884767
:10139000F9E701F08DFA114C114DAC4203DA54F823
:1013A000041B8847F9E7C0F017B8000000060020CA
:1013B000002200200000010800000020000600209C
:1013C00008BF0F0800220020682B0020682B002097
:1013D0008C530120E001010838020108380201089D
:1013E000380201082DE9F04F2DED108AC1F80CD01C
:1013F000C3689D46BDEC108ABDE8F08F002383F3DF
:1014000011882846A0470020BEF06CFEFEE7BEF023
:101410000DFD00DFFEE7000001F0FF01102A2BDBCD
:1014200010F0070F08D010F8013B013A8B422DD085
:1014300010F0070F42B3F6D1F0B441EA012141EABE
:10144000014122F007047FF000070023F0E8025674
:10145000083C85EA010586EA010685FA47F5A3FA04
:1014600087F586FA47F6A5FA87F68EB9EED1F0BC75
:1014700001F0FF0102F0070232B110F8013B013A1E
:1014800083EA010313B1F8D1002070470138704797
:10149000002D06BF35460338073815F0010F07D178
:1014A000013015F4807F02BF013015F4C03F0130D8
:1014B000F0BC0138704700BF10F8012B11F8013B58
:1014C000012A28BF9A42F7D0D01A7047034613F872
:1014D000012B002AFBD1181A0138704738B50022B9
:1014E000002304460D46FFF7D9FA28B920462946BD
:1014F000BDE8384000F00AB8204605F1004100F090
:1015000005F8404261EB410138BD00BFD0B50C4B3E
:10151000002206460F46FFF74FF8FFF725FB04466B
:10152000FEF7D0FF074B0022FFF746F802460B46B6
:1015300030463946FEF788FEFFF716FB2146D0BD40
:101540000000F03D0000F04110B503685B68044600
:10155000984708B194F84D0010BD00002DE9F04106
:101560005F4B03F5C04490B094F9942106460F46B2
:10157000002A00F0B28094F8CC5135B9594A7FF076
:1015800023F9284610B0BDE8F081B3F99C201AB9C0
:10159000B3F89A20A3F89C20B3F89C30632B05D8AD
:1015A000514A394630467FF00FF9002500212E229E
:1015B00004A80391C3F046FDD4F81401036803AAFC
:1015C0001B6832219847804630B9484A03AB3946F8
:1015D00030467FF0F9F84546B4F8F030A3F57A7359
:1015E0009BB241F65832934206D9414B3A462021EC
:1015F00030467EF0E5FE002594F9E832002B5BDDF5
:1016000094F99C32002B4BDD3A4B3A462021304670
:101610007EF0D6FE00253849D4F82001322303AAF3
:1016200088F09EF9804640B903AB00933A46334BAD
:10163000202130467EF0C4FE45463149D4F81C01D5
:10164000322303AA86F02EFD804640B903AB0093F7
:101650003A462A4B202130467EF0B2FE45462021F4
:1016600030467EF0A5FE00288BD0D4ED5B7A9FED4E
:10167000257AF0EEE77AF4EEC77AF1EE10FA80D52B
:1016800094F9E832002B04DD94F84033002B7FF40A
:1016900078AF1D4A394630467FF096F8002570E74E
:1016A00094F84083B8F1000F06D1184B3A46202138
:1016B00030467EF085FE454694F99C32002BAADD2B
:1016C00094F8CD82B8F1000FA5D1114B3A462021F4
:1016D00030467EF075FE45469DE7012551E700BF87
:1016E000702B0020A0890D08C2890D08E9890D081A
:1016F000F4890D08068A0D08778A0D087B8A0D0883
:101700008D8A0D0800000034918A0D082C8A0D087E
:10171000528A0D0838B504467EF02EFE114B93F820
:101720008012114B1D686B6D1A68002908BF0146B5
:1017300012681846904759F09BFA6B6D93F89C100D
:1017400058F0B0FA94F85D305BB197F0F5FE6B6D30
:10175000D3F8A030C01AB0F5FA6F24BF002384F884
:101760005D3038BD708B00206C2B002010B5044616
:10177000FFF7D0FF20467EF009FEBDE8104001468D
:1017800001480FF059BE00BF588C0020034BD3F81E
:101790009C310BB97EF0AABD01207047704B002030
:1017A0002DE9F043037F91B004460D4623B1012794
:1017B000384611B0BDE8F08390F90430002BF6D024
:1017C0008368002BF3D06C4B1B68586DFFF7BCFE91
:1017D00080460028EBD1294620467FF0D9FE674E8F
:1017E0000746294620467FF0CDF896ED517AD6ED92
:1017F000507AB4EEE77A0740F1EE10FAFFB209D55D
:1018000096F93C31032B05D05D4A294620467EF0EF
:10181000DBFF4746B6F9EE30B3F5967F05DA594A55
:10182000294620467EF0D0FF0027B6F9F030B3F508
:10183000967F05DA544A294620467EF0C5FF0027E8
:10184000B6F9F23013F5967F05DD504A2946204659
:101850007EF0BAFF0027B6F9DE30042B07DC052244
:10186000009229464A4A20467EF0AEFF0027D6F86D
:10187000800C64F0B7FE80B196F932316BB1D6F8C6
:10188000803CB6F93421B3F90E309A4205DA414A68
:10189000294620467EF098FF0027DFF81C81294664
:1018A0002046FFF75BFED8F8D02E08F6EC439A42AC
:1018B00007EA000708F5805909D1B9F80835012B66
:1018C00005D8354A294620467EF07EFF002798F845
:1018D000E53E2BB1314A294620467EF075FF0027B0
:1018E0002F4B1B782BB12F4A294620467EF06CFFE8
:1018F0000027D6F8483B5B050FD5D6F8803CB3F9F6
:101900000C30A3F2E24292B2B2F5FA7F05D9264A30
:10191000294620467EF058FF002799F8E03453B15D
:10192000224833F0DDFC064628B9214A29462046E4
:101930007EF04AFF374600212E2204A80DF10C0943
:101940000391C3F07FFBD8F8D00E4A46322109F04C
:1019500031FD064600287FF42BAFD8F8D00E03687F
:101960009B689847134ACDF80090034629462046C5
:101970007EF02AFF37461BE76C2B0020704B0020BF
:10198000AC8A0D08CF8A0D08EA8A0D08078B0D086E
:10199000248B0D08448B0D086A8B0D087C8B0D0879
:1019A000E49B0020918B0D08AA8B0D084880002035
:1019B000D28B0D089AC10E08706B0020F0B591B063
:1019C00005460E467FF008F90446D8B11021284696
:1019D0007EF0EEFCB0B100212E2204A803AF0391EB
:1019E000C3F030FB1BF076FA32233A4601211AF09D
:1019F00047FF044630B9054B009732461021284670
:101A00007EF0DEFC204611B0F0BD00BFE88B0D0873
:101A100070B505460E46B1B990F910408CB1164824
:101A200013F08AFCDFED157AB0EEC00AB4EEE70AD7
:101A3000F1EE10FA07D4124A012128467EF0C4FEC6
:101A40003446204670BDAB689BB10E4B1B68586D89
:101A5000FFF77AFD044630B162F07CFC0A4A0421AB
:101A60005CF00EFAEDE731462846BDE870407FF0A5
:101A700001BB0124E5E700BF702B0020000000340B
:101A8000F48B0D086C2B0020068C0D0838B505462C
:101A90007FF03CFE0446B8B10C4806F07BFB38B141
:101AA0000B490C481CF0BEFE10B1084800F0D2FEF5
:101AB0002846FFF75BFE012385F85D3062F04AFCA3
:101AC000054A06215CF0DCF9204638BD702B002069
:101AD000F48A0020203F0020288C0D08F8B5064627
:101AE0000D461746E2B101291AD82B4808F0E0FF4D
:101AF000044698B100242046F8BD96F91030022B18
:101B00000ED062F027FC254A06215CF0B9F9F2E715
:101B1000002385F89F3385F8BA3335E0002DECD0EB
:101B20003A46294630467FF0B5FE04460028E1D00B
:101B30001B4FD7F8D02E07F6EC439A4203D003F29E
:101B4000EC7033F0D5FED7F8D00E164D03689B6BC2
:101B5000984785F8AC0405F58055D5F83431012B4C
:101B600007D164F0F5FC542165F024FD08B9C5F8EF
:101B700034013046FFF7FAFDD7F8D02E0A4B9A42CF
:101B8000C6D10A4892F0BAF84FF0FF33C7F8083FC1
:101B900062F0E0FB064AB7E7702B0020388C0D0896
:101BA000706B0020707B0020D0790020048F002013
:101BB000508C0D082DE9F04F2DED028B91B00746AA
:101BC00088467EF03BFD0646434833F067FD58B13A
:101BD000424B93F907413CB9414B42464FF4804197
:101BE00038467EF0EDFB26463E4C94F8CC31002B77
:101BF0006CD0A4F580531C22002102A8B3F80895EC
:101C0000C3F020FA04A820F081FCA4F6283AA4F539
:101C10008044012504F56A6B4D4557D20BA820F08E
:101C200075FC09AA2946504631F0ACFC00284DD07D
:101C3000BDF826102C4807F091FDB0B3BDF80A306E
:101C4000102B32D104A90BA820F03CFF9FED277A7E
:101C50002748B0EE408A9BED000AB4EEC70AF1EEC9
:101C600010FABFBFD4ED397A9FED220AF8EEE77A79
:101C700027EE800A20EE000A0EF01EFFF6EE087A2C
:101C800060EE277AB4EEE78AF1EE10FA0DD517EE82
:101C9000900AFEF739FC184BCDE9000142464FF49B
:101CA000804138467EF08CFB00260DF1240CBCE808
:101CB0000F000DF1080EAEE80F009CE80700AEE83B
:101CC000030001358EF80020ADB2A5E7304611B013
:101CD000BDEC028BBDE8F08F48800020704B0020E7
:101CE000648C0D08708B0020702B002000000034E5
:101CF000588C00200AD7233C908C0D0816F048BF62
:101D000070F046B876F096BE6AF02CBB64F0A0BBCB
:101D10002BF0DCBA58F036B909F01EB856F09ABA72
:101D20000DF072B914F058BE03F0A8BC54F0A6BD73
:101D30001EF0D8BE67F056BE67F0ACBA14F0A6BE6F
:101D400013F05CBB4AF054BD1DF0C8BE1EF010BCC1
:101D50006BF068BF64F0CAB861F096BF08F010BAC3
:101D600005F064BA0CF010BC0DF0B0B808F098B8EB
:101D700014F04EBC14F038BF13F092B914F078BDD3
:101D800001F0AEBE00F2B45023F00CBE08F064BD0A
:101D900090F8D022B02302FB0333034490F876235B
:101DA0005B7812B1012B28BF012318467047000051
:101DB000034690F8E40018B193F80001C0F3400026
:101DC00070470000034808603021117008221A6033
:101DD000704700BFA8910D0870B5044604F59D56E4
:101DE00000F5C0407C301036FFF794FC00213046EF
:101DF0001AF058FA8021204615F070F918B12CF02D
:101E0000C7FF2AF0F5FE04F5005504F5C540B5F905
:101E1000EE30C5F89C3DB5F9F230C5F8A03D603014
:101E200015F058FB38BBD5F89C3D07EE903A04F509
:101E3000805303F2F45292ED007AF8EEE77A03F55C
:101E4000BE6367EE877AFDEEE77A17EE902AC5F853
:101E50009C2DD5F8A02D93ED007A07EE902AF8EE90
:101E6000E77AB0EEC77A67EE877AFDEEE77A17EE8B
:101E7000903AC5F8A03D304619F0F0FE05463046D0
:101E800019F0F0FE00F11801284630F08FFE04F53D
:101E9000A84594ED427AD5ED007AE7EE007AC5EDDB
:101EA000007AB0EE670A2DF0BFFC04F5C14085ED65
:101EB000000A68300DF01CFE04F5C14000217430AA
:101EC00082F0C4F84FF40011204615F007F920B154
:101ED0003046BDE8704019F0D3B970BDFFF77CBF44
:101EE00070B500F580430546D3F8D00E03689B6BB0
:101EF000984705F5C14468340646204612F002FCB6
:101F000028B926B105F53850283082F001F820466E
:101F100010F066F818B92046FFF74AFF20B12046B6
:101F2000BDE8704011F00AB870BD0000FFF7D8BFDF
:101F300038B54FF48011054615F0D0F8044620B9A5
:101F40000121284615F0CAF804460221284615F05A
:101F5000C5F850B114B9284603F0C6FA05F59D50EE
:101F60001030BDE8384019F071B8002CF6D138BDFA
:101F7000FFF7DEBF38B54FF48011044615F0AEF818
:101F800001210546204615F0A9F818B115B92046DB
:101F900003F0AAFA1021204615F0A0F830B120462F
:101FA00003F07AFB2CF0F4FE2AF01EFF20212046DD
:101FB00015F094F828B1204603F02EFC204603F0DB
:101FC00045FD4FF40051204615F088F810B1204629
:101FD00003F022FD8021204615F080F828B12CF076
:101FE000D7FEBDE838402AF027BE38BDFFF7C2BF94
:101FF00000F5804300F5BD40D3F8F41E70307DF04D
:10200000E5BF0000FFF7F4BF10B5044623F0CAFF98
:1020100090F921308BB190F8403373B194F9D835F1
:102020005BB1064B1B685B6D93F89C302BB904F2D7
:10203000B450BDE8104023F075BC10BD6C2B0020DF
:10204000FFF7E2BF2DE9F04100F5F35500F58057A9
:102050000C35044697F8BA1F284618F0ABFB002849
:1020600054D004F588763046FFF792FE02284DD909
:1020700094F8E0334FF0B00808FB034393ED777A10
:10208000F1EE007AB4EEE77AF1EE10FA3ED497F86A
:10209000BA1F284618F02CFE04F50053B3F9DE20D1
:1020A00007EE902AB8EEE77AB4EEC07AF1EE10FAB5
:1020B0000CDD94F8E02308FB0242F8EE677A92ED1B
:1020C000777AF4EEC77AF1EE10FA1FDCD7F8AC2578
:1020D000D3F89C1D002AB8BF52428A4216DCD7F8BA
:1020E000B025B3F9F0108A4210DCD3F8A01D8A4263
:1020F0000CDB94F8E013B02202FB01612846B3F92F
:10210000E020BDE8F041E43118F06EB9BDE8F0819F
:10211000FFF798BF2DE9F04190F8E0332D4D00EB2B
:1021200003132F68D3F8948100F58876044630466F
:10213000FFF72EFE474514D0022814D904F5804736
:10214000C5F8008097F8003F012B15D817D104F58A
:10215000A045D5F88C3FE3B9D5F8903FCBB905231E
:102160000BE0022810D804F5804393F8002F5AB1F1
:10217000052283F8002F07E0013B87F8003F04F5B4
:10218000B8500C301CF098F92046BDE8F0410CF036
:1021900019BC114B1B68586D03685B6898478046F3
:1021A0000028ECD194F8E013B02303FB0161BC31AB
:1021B000204606F05DF8D5F8703F0FCB05F6747633
:1021C00005F6947586E80F0085E80F0087F8008F04
:1021D000D5E700BF682B00206C2B0020FFF79ABFCB
:1021E00070B500F5C043044693F8CC3100F5805635
:1021F0004BB100F5C540603015F062FC18B1012309
:1022000086F8093717E004F5C145683528460FF010
:10221000E7FE88B92846FFF7CBFD68B904F5A0436F
:10222000D3F8B434042BEAD104F5BC4064308AF00E
:10223000DDFC86F8090770BD0023E1E710B500F565
:10224000804400F59943D4F8D02E6C339A421EBFD7
:1022500000F5A0434FF0FF32C3F8F823FFF7C0FFAB
:10226000D4F8D00E0368BDE810401B691847000081
:10227000FFF7E4BF70B500F5A0460446D6F8B434C5
:102280008B420D461CD00B1F594200F5BC405941F2
:1022900064308AF0A1FB072D0BD104F55350D6F81A
:1022A00008246423052192FBF3F31430054A5BF004
:1022B000E7FDC6F8B4542046BDE8704003F016BBF5
:1022C00070BD00BF108D0D0870B500F58046044646
:1022D000D6F8D00E03689B6B9847B8B104F5A045BB
:1022E00095F8AC3493B9D6F8D02E04F599436C33F5
:1022F0009A424CD104F5C146683630460FF062FA76
:1023000060B995F839347BB9012108E004F5C1457D
:10231000683528460FF064FE00283ED00221204692
:10232000BDE87040FFF7A6BFB5F81235152B27D1D1
:1023300095F8681E11F0010120D1D5F8B434072BAF
:102340001CD095F9DE3E0BB90421E8E7204612F0D7
:10235000F3FFDFED137AB4EEE70AF1EE10FAF3DBE8
:1023600004F5BC4064308AF087FB0028ECD004F50B
:1023700053500C4A062114305BF082FD0721CEE752
:102380003046FFF715FD0028C8D10321C7E704F543
:102390009C437C339A42F8D170BD2846F1E700BFD8
:1023A0000000B442348D0D0838B52F4DD5F8D02E2D
:1023B00005F6EC439A422DED028B0446B0EE408ABE
:1023C00003D00020BDEC028B38BD28480FF0FAF98D
:1023D00040B1BDEC028B04F5C1406830BDE8384027
:1023E00012F068B905F58054D4F8B434042B24D124
:1023F0001F4833F0F7FC0028E4D11E4D95F8CC318E
:1024000023BB9FED1D7AF0EEC87AF4EEC77AF1EEA9
:1024100010FA09D49FED190A28EE008ABDEEC88A89
:1024200018EE103AC4F8083415488AF025FB002845
:10243000C7D0002384F83C34C4E7B4F81215A5F5DE
:10244000804007F08BF90028D2D1BAE705F1E80007
:102450000FF0B8F90028B4D105F1E8000FF072F9D7
:102460000028AED1CDE700BF706B0020588C002053
:1024700048800020708B0020000000340000C8421B
:10248000D489002010B52DED028B00F5A043044641
:10249000D3F8B424042A0BD105F02AF92046B0EE73
:1024A000408A05F047FA38EE400ABDEC028B10BDB9
:1024B00003F57C6393ED000AF7E700002DE9F04394
:1024C0002DED028B044600F5916504F5C0468BB0F6
:1024D00028461DF0EFF896F8CC3133B12846D6F8EF
:1024E00014711CF099FF87ED2B0A04F59D50002311
:1024F00007A9103007930893099319F07FFD00286E
:1025000000F082809DED090ADFED577A04F5A045C1
:1025100005F5836393ED007A20EE270ADFED537A09
:10252000A7EE270A04F58047204683ED000AFFF74F
:10253000CBFED7F8D00E03689B6B9847804604F516
:10254000C140683012F0DEF8002858D1B8F1000F11
:1025500055D095F8AC34002B51D1D5F8B434042BB8
:1025600069D09FED438A204605F004FAC6F880053D
:10257000D7F8D02E04F59A4308339A421BD1337A08
:10258000CBB904F50053B3F95C3C002B04DC394AA9
:10259000D2F8482BD2060ED5D5F8701FD5F8782F73
:1025A00049680A33521A64214B438242ACBF9B18DC
:1025B0001B18C6F88035D5F8B434D6F88015D7F88E
:1025C000042F059120460492039316F081F9B7F980
:1025D000127F06462046FFF755FFCDE9006705F557
:1025E0009A6504F53850F0EE400ADDE9033295EDC6
:1025F000001A0599B0EE480A283081F013F80BB0A4
:10260000BDEC028BBDE8F08304F58870FFF7C0FBDA
:1026100002280AD994F8E033B02202FB034393F86E
:10262000102212B193ED7F0A6EE728461CF01EFEC1
:10263000B1EE400A68E704F5BF4804F5BF4908F168
:10264000040809F1140904F5BE414A4674314046B4
:1026500020F0EEF9002884D04946404620F032FAB6
:10266000B0EE408A7FE700BFCDCC4C3ECDCC4C3F96
:1026700000000000704B0020FFF720BFF8B500F508
:10268000804200F59A43D2F8D02E7C339A42044619
:102690000E4623D000F5C147683738460FF0A0FC3E
:1026A0000546A8B138460EF0CFF970B104F5C04424
:1026B000D4F8240103689B689847DFED097A20EE7F
:1026C000270A86ED000A2846F8BD9FED060AF8E7BE
:1026D00004F5A8440125236A3360F4E70025F2E7F6
:1026E0000AD7233C00000000F8B500F5804200F551
:1026F0009A43D2F8D02E7C339A4204460E4630D00C
:1027000000F5C147683738460FF06AFC0546A8B1A6
:1027100038460EF099F970B104F5C044D4F824019C
:102720000368DB68984707EE900AF8EEE77AC6ED93
:10273000007A2846F8BDDFED0C7AF8E704F540543E
:102740000125D4F8E80603681B69984707EE900A4C
:102750009FED067AF8EEE77A67EE877AC6ED007AA3
:10276000E7E70025E5E700BF000000000AD7233CAB
:10277000F8B500F5804200F59A43D2F8D02E7C33AC
:102780009A4204460E4624D000F5C14768373846C1
:102790000FF026FC054688B138460EF055F950B1C9
:1027A00004F5C044D4F82431186986F053FA86ED54
:1027B000000A2846F8BD9FED080AF8E704F54054E2
:1027C0000125D4F8E80603685B69984786ED000A9E
:1027D000EFE70025EDE700BF0000000070B50446FC
:1027E00000F5C14068300E4615460EF097FA50B11C
:1027F00004F5C044D4F854339B682B60D4F85433A8
:102800005B68336070BD04F5AD5304331B682B6007
:1028100004F5AD5304F500541B683360D4F8483B0D
:102820009B05EFD4B4F97031DFED086A07EE103A7A
:10283000F8EEC77A9FED067A27EE677AD5ED007A33
:10284000E7EE267AC5ED007ADCE700BF35FA8E3C6C
:102850000AD7233C38B50D4D044629460C4819F0DB
:1028600043FB04F5804305F13C0183F8010F04F5B7
:102870009D5010301AF060F904F5BF40D0ED107A89
:10288000F1EE677AC0ED107A38BD00BFF48A0020FF
:10289000203F002010B5044600F5887026F01AFD90
:1028A0002046BDE81040FFF7D5BF0000FFF7F2BF9C
:1028B00038B5054B1C6823680A461D68034B014662
:1028C0002046A847002038BD6C2B0020702B00202C
:1028D00070B52DED028B0446036804F50055DB6BE3
:1028E0009847D5F8483B1B0618D5B5F9DE30B5F941
:1028F000E010CA1A0B4402EBD27203EBD3735210EE
:102900005B1000EE902A00EE103A04F59D50F8EEB0
:10291000E00AB8EEC00A103019F092FEB5F80221B4
:102920004C4B4D4E1A7004F5C0457C3565F048FBA4
:1029300000212846FEF734FF0123B0712846F371C9
:102940007DF01AFD28B928467EF006FEB0FA80F028
:10295000400930710421204614F0C0FB20B104F579
:10296000AB40483055F0C4FC28467DF005FDD8B991
:1029700094F8E03304F5C04504EB031341F28832C8
:10298000D3F89461EB68F31A93420DD904F588707B
:10299000FFF7FEF9022807D9EE60204605F0FAFBA2
:1029A00004F5BC4300225A66B4F99C301BB9B4F854
:1029B0009A30A4F89C30B4F89C30DFED288A07EEFA
:1029C000903AF8EEE77AB7EE008A88EE270AD4ED5F
:1029D000297AF0EEE77AF4EEE87AF1EE10FA09D50A
:1029E000B4F99A3007EE903AF8EEE77A88EE277A53
:1029F00084ED297AD4ED290A2CF018FE58B956F046
:102A0000B1FABDEC028B4FF4AF72BDE870404FF4E9
:102A1000801156F05DBAD4ED297A94ED420AF0EEB9
:102A2000E77AF4EEE87AF1EE10FA09D5B4F99A30C3
:102A300007EE903AF8EEE77A88EE277A84ED297A65
:102A4000D4ED290A2CF0F2FD0028D8D0BDEC028B81
:102A500070BD00BFD0220020AD91002000000034E6
:102A6000FFF736BF70B500F5A046044696F9DC3E88
:102A7000002B28DD08F01CF828BB04F5C0457C3588
:102A800028467EF069FDF0B128467DF075FCD0B196
:102A900096F052FDD6F82834C01A96F9DC3E4FF471
:102AA0007A72534398420ED301221C212846FFF725
:102AB00015F840B104F55350034ABDE870400621B3
:102AC00014305BF0DDB970BD548D0D0800B52DEDEF
:102AD000028B9FED0B8AD0ED497A67EE887A83B03E
:102AE000C0ED497A3830019074F0FEFB019820EE79
:102AF000080A03B0BDEC028B5DF804EB74F096BDE0
:102B000052B87E3F00B52DED028B9FED0B8AD0EDC4
:102B10004A7A67EE887A83B0C0ED4A7A3C300190F9
:102B200074F0E2FB019820EE080A03B0BDEC028BC2
:102B30005DF804EB74F07ABD52B87E3F30B52DEDF0
:102B4000048B044683B000F59D5001A910301AF0A3
:102B50007FF8002800F0B28004F5A84595ED047ACE
:102B6000DDED017AB4EEE77AF1EE10FA05F1100529
:102B700007D504F5C0407C307DF008FC08B1019B0E
:102B80002B6004F5005595ED497AB5F9DE30DFED9F
:102B90005D6A052BB8BF052307EE903AB5F9E03022
:102BA000F8EEE78A07EE903AF8EEE77AB6EE009A8A
:102BB00077EEA77A1820C7EE270ADFED537A68EE82
:102BC000A77AF4EE490A87EE271AF0EE007AF1EEC2
:102BD00010FAB4EE671AC8BFF0EE490AF1EE10FA27
:102BE00048BFB0EE671ADDED017AF4EEE67AF1EE59
:102BF00010FACCBF87EE270AB0EE410A2CF028FE6F
:102C000004F5C1406830B0EE408A0FF0E9F9B8B37E
:102C100004F5C0407C307DF0B9FB88B328EE892AEA
:102C20009DED011AB4EEC21AF1EE10FA28D5D5EDD9
:102C3000490ADFED361A9FED360AC0EE820A2CF003
:102C400039FD04F542501030B4EE408AF0EE408A6F
:102C5000F1EE10FA48BFF0EE488AFFF737FF04F5AF
:102C600047500C3004F55154FFF74CFFD4ED057A72
:102C70009FED287A67EE877AB0EE688AC4ED057A10
:102C8000254819F0ABFC98B9244BD3F8482B5206D1
:102C90000ED503F54053D3F8B434012B08D1F7EE29
:102CA000007AB4EEE78AF1EE10FA58BFB0EE678A08
:102CB000B0EE480A03B0BDEC048B30BD04F5C04053
:102CC0007C307DF063FBB7EE008A0028D8D0462028
:102CD00064F08CFFB4EEC80ADFED117AF1EE10FA61
:102CE000D8BFB0EE480A87EE800AC0F001F92F2065
:102CF0009FED0C1ADFED0C0A2CF0AAFDB0EE408A15
:102D0000BEE700BF17B7D1383333333F00000000B0
:102D10006F12833A52B87E3F203F0020704B002054
:102D2000000034428FC2D53F9A99193FF8B5044646
:102D300063F00EFC03689B689847054610B90025B0
:102D40002846F8BD04F58046204607F071FDD6F808
:102D5000D02E04F59C4308339A42074605D104F56A
:102D6000C04393F87C32022BE9D804F5C1406830A7
:102D700010F0BEF90028E2D1D6F8D00E03689B6BA4
:102D8000984758B996F8E43E002BD9D004F5005482
:102D900094F93C51023D18BF0125D1E7084BD3F807
:102DA000D00E03685B6B98470028EBD004F5005405
:102DB00094F97931002BC2D0032BC0D03D46BFE738
:102DC000706B002070B52DED028B044600F5804637
:102DD00000F5C14006F61C7382B0683093ED008A9E
:102DE0000FF02AFA04F54255103570B3D6F8D02EFC
:102DF00004F597437C339A4225D104F50053D3F868
:102E0000783CB3F90820003A18BF012204F5A0432A
:102E100004F58054D3F8C814D4F8AC0593F8C4343E
:102E2000091A33B1174BD3F8483B83F40063C3F35B
:102E3000C023B0EE480A284602B0BDEC028BBDE8C4
:102E400070407CF015BA0022E0E704F5C044D4F8E5
:102E50001C0103689B689847DFED0B7A90ED230A0D
:102E6000F0EE480A20EE270A28467CF0FDF92846B5
:102E70008DED010AFFF72AFE9DED010A02B0BDECBF
:102E8000028B70BD704B0020E02E654210B50446E9
:102E900007F0CAF898B104F5A042D2F8C83403F597
:102EA0008C415031C2F8C81404F58051D1F8AC15EA
:102EB0000029BEBFA3F58C43503BC2F8C83420465E
:102EC000FFF780FFBDE81040042064F07BBE0000E7
:102ED0002DE9F04700F5C1452DED028B00F5804945
:102EE0006835044609F61C732846D3ED008A0FF0B6
:102EF000A3F904F547560C36002860D004F50058B5
:102F000004F5A04728460DF0CDFDB8F97031D7F88B
:102F1000CC24134407EE903A82464620B8EEE78A66
:102F200064F064FED8ED457AD9F8D00EA0EE278A79
:102F300004F597437C339842FDEEC87A17EE905A19
:102F40003AD1D8F87C3CB3F90880B8F1000818BF32
:102F50004FF00108BAF1000F15D103685B6998477B
:102F600088B9D9F8D00E03689B6B984758B904F517
:102F7000C043D3F87835022B05D1204612F032F841
:102F800008B1B7F9BC5E97F8C43404F58054D4F89E
:102F9000B015691A33B1194BD3F8483B83F4006379
:102FA000C3F3C023B0EE680ABDEC028B4246304644
:102FB000BDE8F0477BF0AABE4FF00008CAE704F571
:102FC000C044D4F81C010368DB689847DFED0C7A35
:102FD00090ED230AF0EE680A20EE270A30467BF0D7
:102FE000AFFD3046B0EE408AFFF78CFDBDEEC80A5B
:102FF000BDEC028BB8EEC00ABDE8F087704B002034
:10300000E02E654210B5044615F07AFD68B100B2B5
:1030100000EB4000C0EB001300EE103AB8EEC00A1F
:10302000BDE81040132064F0CDBD2046FFF750FFEF
:10303000F6E7000010B50446FFF778FEB8B104F5D6
:103040000054042064F0D2FDD4F8780C63F0AAFC9C
:10305000042064F0B7FD132064F0C8FDD4F87C0CA4
:1030600063F0A0FCBDE81040132064F0ABBD10BDC0
:10307000F8B52DED028B0446FFF758FE002800F04E
:10308000C98004F5804704F59842D7F8D03E343221
:10309000934200F0BF8004F598427032934200F0F2
:1030A000B98004F599425032934200F0B38004F5A0
:1030B00099420C32934200F0AD8004F599422832D7
:1030C000934200F0A78004F59B421832934200F02F
:1030D000A18004F59B423432934200F09B8004F5BA
:1030E0009B425032934200F0958004F59B426C3233
:1030F000934200F08F8004F59C422832934200F006
:10310000898004F59C426032934200F0838004F58C
:103110009842183293427DD004F50056F6EE008AAC
:10312000D6F8780C63F032FBB4EEE80AF1EE10FA50
:1031300073DDB0EE087AFFEE007AE0EE077AB0EECB
:10314000670AD6F89C2D04F5A04507EE902AD5F81D
:10315000C834B8EEE77A07EE903AF8EEE77A5142D3
:10316000E7EE007AFDEEE77A17EE900AC5F8C8049C
:103170002CF00EFCC5F8C804D7F8D02E04F59A43FD
:1031800024339A4204D1314BD3F8483BDB0441D479
:10319000D6F87C0C63F0FAFAB4EEE80AF1EE10FA15
:1031A000B0EE408A45DDB0EE087AFFEE007AE8EE38
:1031B000077AB0EE678A204606F036FF08B1B1EE16
:1031C000488AD5F8CC34B6F9F020D6F8A01DB5EE73
:1031D000C08AF1EE10FACCBF07EE102A07EE101AE3
:1031E00007EE903AC8BFB8EEC77AF8EEE77AD6BFD6
:1031F000B8EEC77AE7EE087AE7EE487AFDEEE77AAE
:1032000017EE903A17EE900AC5F8CC342CF0C0FBBC
:10321000C5F8CC04BDEC028BF8BDFEEE007AB4EE2E
:10322000E70AF1EE10FA8CD5B0EE087AF7EE007AE4
:1032300083E7FEEE007AB4EEE70AF1EE10FABAD5B3
:10324000B0EE087AF7EE007AB1E700BF704B0020CD
:1032500010B52DED028B00F5005393F9DB20012A08
:1032600008DC9FED160ABDEC028B4620BDE810403D
:1032700064F0A8BC00F5804003F62863D0F8D00EB7
:1032800093ED2B8A03689FED0E0A1B6A28EE008AD5
:10329000984780B10B4CD4F8643463B196F04CF984
:1032A000D4F86434C01A40F6B73398429CBF04F592
:1032B0008C6494ED008AB0EE480AD4E70000000068
:1032C0000000C842707B00202DE9F0472DED028BF5
:1032D00000F5804A0AF61C73D3ED008A054611F00A
:1032E000A9FC0746DAF8D00E03681B6A984705F573
:1032F000405688B1534CD4F85C34002B0CDD96F06A
:103300001BF9D4F85C34C01A40F6B733984203D89E
:10331000B4F9500400247CE005F5C04305F54C5990
:1033200093F8704505F5005809F10C0934B1B8F966
:103330005831002B02DD96F9223303BBDAF8D02E88
:1033400005F597437C339A4274D00021B0EE680AA9
:1033500048467CF023FA0446042064F047FC23B27C
:1033600007EE903A98ED437AF8EEE77AE0EE077AC6
:10337000FDEEE77A17EE903A3B4418B2CAE7012116
:10338000284611F025FE9FED307AB8F95831C0EE8D
:10339000077A05F5A04707F2D44708EE103A57F828
:1033A0000C3C9FED2A0AB8EEC88A28EE278A07EE61
:1033B000903AF8EEE77A67EE807A9FED250A27EEDD
:1033C000800ABFF0B9FBB8F9DE30DFED227A97ED65
:1033D000007A20EE270A07EE903AF8EEE77A4846A0
:1033E000B4EEE77AF1EE10FA58BFF0EE477A80EECD
:1033F000277A0021DFED187AB0EE480AA7EE270AF7
:10340000F0EE680A7CF028FBBDEEC00A10EE103A20
:1034100018B2124941F294122CF0CAFAA6F8CE045E
:1034200064B9BDEC028B05F54C500C30BDE8F0479B
:103430007CF01ABC391E18BF012187E7BDEC028B56
:10344000BDE8F087707B002000A08C450AD7233CA4
:1034500035FA8E3C0AE81C41E02E65426CEEFFFF17
:1034600038B500F540550446D5F8E8060368DB6832
:103470009847014604F551502C307CF025F9A5F809
:10348000CC042046FFF752FC88B1B5F9CC3404F5E2
:10349000005400EE103AD4F8840CB8EEC00A63F081
:1034A00081FABDEEC00A10EE103AA5F8CC340549F9
:1034B000B5F9CC0441F294122CF07AFAA5F8CC04B8
:1034C00038BD00BF6CEEFFFF70B590F8E033B0225E
:1034D00002FB030393ED777AF7EE007AB4EEE77A16
:1034E000F1EE10FA044600F5A04500F540561ED551
:1034F000002111F021FFDFED437AB0EEC00AB4EEF7
:10350000E70AF1EE10FA12D5D5F8B434012B0ED03B
:10351000072B0CD0002385F8FC3304F5A8430022C8
:103520001A60204611F086FBA6F8CC0470BD96F018
:1035300003F8D5F80434C5F80404C31AB3F57A7F48
:1035400084BF002385F8FC33204611F073FBD5F8C7
:10355000B434012B07EE100A2FD0072B2DD0B8EE74
:10356000C77ADFED296AC7EE267A04F50052B2F970
:103570001C2100EE102AB8EEC00A27EE800ADFED0B
:10358000217AB0EEC07AB4EEE77AF1EE10FA16D4F2
:10359000002385F8FC3395F8FC3304F551502C30AA
:1035A000EBB97BF073FFA6F8CC041849B6F9CC044C
:1035B00041F294122CF0FCF9B6E79FED150A95F84C
:1035C000FC23002AE7D10122934285F8FC23E2D0B4
:1035D000072B1EBF04F5A84300221A60DBE704F5A1
:1035E000A84494ED007ADFED0B7A67EEC77A9FED81
:1035F0000A7A67EE877AFDEEE77A17EE901A7CF08A
:1036000063F8D0E70000003400A08C456CEEFFFFAB
:1036100000000000E02E65420000C84270B500F5D1
:10362000BC4564350446284689F00CF904F540563B
:10363000A0B1012386F8CA34284689F003F998BB63
:1036400004F5A04296F8CA34D2F8F823013225D006
:1036500053BB2046BDE87040FFF736BE04F500526C
:10366000D2F8783CB3F9083073B904F5BF43D3ED11
:10367000107A92ED467AF0EEE77AF4EEC77AF1EE40
:1036800010FA4CBF0120002086F8CA04284689F0B1
:10369000EDF80028D0D186F8CA04CDE7002BD8D0A9
:1036A0002046FFF711FFD4E72046FFF7D9FED0E709
:1036B000F8B500F5005606F62863D3ED2C7A9FED99
:1036C000167A00F580430446D3F8D00E67EE877A69
:1036D0000368FDEEE77A1B6A17EE905A984778B1B7
:1036E0000E4FD7F85834002B0ADD95F025FFD7F898
:1036F0005834C01A40F6B733984298BFD7F84C54A4
:10370000B6F9F020D6F8A01D28462CF041F904F5B2
:10371000A044C4F8CC04F8BDA00CB345707B0020D5
:1037200010B5044613F0E0FC031E2ADB04F500513B
:1037300091F9DB209A4224DD04F5A040D0F8B4448E
:10374000022C1ED0D1ED487ADFED0E6AD31A66EE58
:10375000E76A07EE102A07EE903AB8EEC77AF8EE5D
:10376000E77AD0F8CC3487EE876A07EE903AF8EE25
:10377000E77AE6EE867AFDEEE77A17EE903AC0F841
:10378000CC3410BD0000C84270B52DED028B00F5A1
:10379000A0459FED550AD5F8C8349FED547A07EE41
:1037A000903AF8EEE77A044667EE807A9FED500A89
:1037B000F0EEE76AF4EE476AF1EE10FAC8BFF0EEF9
:1037C000477A27EE800ABFF02DF82BF063FFB7EEA3
:1037D000008AC8EE007A05F59A6304F50056C3ED39
:1037E000007A04F5C04393F8CC21A2B1D3F8E401E8
:1037F000036804F536515B6A1C31984758B1D6F816
:103800009C2DD5F8C80451422CF0C2F8C5F8C80464
:10381000BDEC028B70BD96F9F530002BF8D0204638
:1038200006F002FC0028F3D104F5C540603013F027
:1038300051FE0028ECD1B6F9DE30012BB8BF0123D0
:1038400007EE903A05F2D442F8EEE77AD2ED006A3C
:1038500086EEA77AB4EEC87AF1EE10FA13D840F6E5
:10386000C4122449D5F8C8042CF092F8C5F8C8044D
:10387000D6F89C2D40F6C4139A42D4BFC6F89C2DAE
:10388000C6F89C3DC4E705F59A63D3ED007AF4EEE3
:10389000C77AF1EE10FABBDD88EE070A20EE000AC7
:1038A000BFF074F9DFED147AD5F8C80420EE270ACA
:1038B000DFED127A20EE270A40F6C413FDEEC07A3F
:1038C00017EE904A9C42B8BF1C46224661422CF03B
:1038D0005FF8C5F8C804D6F89C3DA342D4BFC6F82B
:1038E0009C3DC6F89C4D93E70AD7233C0000AA42B2
:1038F00035FA8E3C3CF6FFFFE02E65420000C842E0
:103900002DE9F0412DED048B00F540530546D3F829
:10391000E806036884B01B68984705F580480646AA
:10392000D8F8D00E03681B6A984705F5A04408B381
:10393000634FD7F85434002B1CDD95F0FDFDD7F80C
:103940005434C01A40F6B733984213D8D7F84864B5
:1039500005F500533046D3F89C2D51422CF018F851
:10396000C4F8C804284604B0BDEC048BBDE8F0419F
:10397000FFF70ABFD8F8D02E05F59A4340339A4294
:10398000E6D194F89434002BE2D095F0D5FDD4F82C
:103990009034DFED4C7AC4F89004C31A09EE103A63
:1039A00094F89434B8EE499A022B29EE279A04F53C
:1039B000916670D196ED008A19F08CFA90ED7E0A2E
:1039C00038EE400A2BF030FF04F28C43DFED3E7AF4
:1039D000DFED3E8AB0EE408A93ED000A80EE270AC2
:1039E000BEF000FE05F52E500021019020EE280AC1
:1039F000DFED378AF0EE490A60EE288AB0EE480A19
:103A000073F07EFD019873F06FFCDFED327A019860
:103A1000B4EEE78AF1EE10FAB0EE409A02D894F8CC
:103A200095344BB1DFED2C7AB4EEE78AF1EE10FA63
:103A300008DB94F896342BB9019073F055FC01988B
:103A4000B0EE409A019073F047FC019830EE099A6D
:103A500073F04EFC39EE000AF1EE680AF4EEC00A8B
:103A6000F1EE10FAF4EEC08AACBF01230023F1EEB0
:103A700010FA84F8953494BF0123002384F8963417
:103A80004FF42170B0EE681A2BF0E2FEFDEEC07A22
:103A900017EE906A5CE719F01DFA18F093FCF0EE4F
:103AA000607AF1EE400AB1EE670A96ED008ABFF047
:103AB000D5F8DFED0A7A38EE400A30EE270A81E7C2
:103AC000707B00206F12833A0AE81C41E02E6542A9
:103AD0000000C842000000B400000034DB0F494081
:103AE000F7B500F5804600F59A43D6F8D02E7C3322
:103AF0009A4204460AD100F5A043002200F5A844EA
:103B000083F8FC230023236003B0F0BD95F014FD7F
:103B100001238DF8073004F5C043054693F8CC2106
:103B200062B1D3F8E401036804F5A94204F5A941A0
:103B30001F6A48320DF107034C31B847D6F8E03E12
:103B4000EB1AB3F5FA6F17D904F5425010307BF039
:103B5000D1FB04F547500C307BF088F904F54C504C
:103B60000C307CF075F804F5A043002283F8FC23A8
:103B700004F5A84300221A60D6F8D00EC6F8E05E1D
:103B800004F598431833984259D1564BD3F8D00EC8
:103B900003681B6898470021204611F0CDFBDFED3C
:103BA000527AB0EEC00AB4EEE70AF1EE10FAABD5E5
:103BB00004F5BF43D3ED107AB1EE047AF0EEE77A64
:103BC000F4EEC77AF1EE10FA9ED504F591601BF081
:103BD0004DFBF6EE007AB0EEC00AB4EEE70AF1EE65
:103BE00010FA91D504F59D551035284618F010FCB3
:103BF000F0EE087AB4EEE70AF1EE10FA84D504F597
:103C0000425010307BF076FB04F547500C307BF0CF
:103C10002DF904F54C500C307CF01AF8284618F0B9
:103C2000F7FBF7EE007AB4EEE70AF1EE10FA7FF553
:103C30006BAF04F551502C307BF064FD64E704F564
:103C4000984334339842A0D004F597437C3398428C
:103C50000FD12046FFF71AF92046FFF7D3F99DF858
:103C6000073013B12046FFF7E5F92046FFF7D6FCF1
:103C700091E703685B699847C0B104F5C5402946E0
:103C8000603013F077FE88B9164DD5F8D00E036872
:103C90001B689847D5F8D00E03685B6898471728CB
:103CA0000ED105F6344007F049FF74E79DF8073060
:103CB0006BB92046FFF7EAF82046FFF7A3F9D4E7EF
:103CC0002046FFF7E3F82046FFF79CF963E704F589
:103CD000005393F87931013B012BEAD82046FFF7D6
:103CE000C7F9E6E7706B0020000000347047000061
:103CF00070470000704700000120704770470000C7
:103D000001207047014B93F804017047704B00206D
:103D1000034B93F90009003818BF0120704700BF1A
:103D2000704B0020014B93F906017047704B002047
:103D300013B5064BD3F8D00E4B69046800930831D5
:103D40000EC9646CA04702B010BD00BF706B0020AC
:103D5000094B9FED0A7A03F60473D3ED007AF8EE6F
:103D6000E77A82B067EE877AFCEEE77ACDED017AEA
:103D70009DF8040002B07047706B0020CDCC4C3D24
:103D80007047000038B5254DD5F8D00E03685B6844
:103D9000984719283BD8DFE800F00D38360D0D366E
:103DA0003636363A3838383838383A36363636389D
:103DB000360D383840241A4B93F8C92412B193F8C1
:103DC000C8340BB944F01004164BD5F8D02E9A42E3
:103DD000A3F11C0303D09A4218BF44F01004124907
:103DE00091F97911A9B19A4215D0032902D10F4B4B
:103DF0009A4201D144F040040D487CF0BDFA50B124
:103E000044F0800407E01024D5E71824D3E7012408
:103E1000D1E79A42F0D144F0010038BD706B002028
:103E2000705B0020EC780020704B00205C78002054
:103E3000EC8B002008B5044806F03AFE00280CBFC1
:103E40000120022008BD00BF702B0020F0B52DED31
:103E5000028B8BB0054619F03DF8224BD0F8F0717B
:103E6000D3F8482B90ED7D8AD0F8F861D10504464F
:103E70000DD4B3F9703107EE903AB8EEE77ADFED82
:103E80001A7A67EEC77A9FED197AA7EE878A1848E3
:103E90000CF044FF30B1174BD3F854335F6893ED07
:103EA000028ADE68204617F0D9FE04462D7C95F084
:103EB00043FB6268A36821680892099327221C23A8
:103EC000CDE900320390079103AA1E2128460497EA
:103ED0008DED058A06965BF003F80BB0BDEC028B06
:103EE000F0BD00BF704B00200AD7233C35FA8E3C52
:103EF000588C0020708B002008B5024813F0F4F8AD
:103F000000B208BD702B00207FB5002303930493FB
:103F1000059318F0DFFF18F01FF803A88DED030AD2
:103F2000CDED040A8DED051A2FF048FAF1EE047A72
:103F300020EE270ADFED087AB4EEE70AF1EE10FA78
:103F400058BFB0EE670AFCEEC07ACDED017A9DF85D
:103F5000040007B05DF804FB00007F430F4BC86806
:103F6000C3F8980F0A7AD20741BFD3F8702F52686E
:103F70001218C3F8982F93F8942F09486FF3000292
:103F800083F8942F0A7A93F8941FC2F3800262F3A5
:103F9000820183F8941F03F02BBA00BF707B0020CE
:103FA000702B002010B5054C012384F8D1345CF04F
:103FB00007FC002384F8D13410BD00BF705B0020E3
:103FC0005FF03EBD30B58B8BBF2B8FB00C467CD0E5
:103FD00018D8162B6CD009D8112B5FD0142B64D0B5
:103FE00021460FB0BDE8304061F0AEBCB22B32D0FC
:103FF000BD2BF5D14C4831F0CDFE002838D04B49CF
:1040000002224DE0B3F5967FF9D014D8D12B62D0BF
:10401000D42BE5D1D1ED007A9FED457A4548F0EEFD
:10402000E77AF4EEC77AF1EE10FA54BF01210021CD
:1040300005F0F4FF37E040F6B8329342D0D1D1ED2D
:10404000007A3D48FCEEE77ACDED037A9DF80C103E
:104050000CF080F936E0394DD5F8D00E03681B6AB4
:10406000984738B9D5F8D02E05F6EC439A4201D0DE
:1040700004240EE009A81EF049FA204607A930F0F2
:104080005FF9044640B92B4807A904F06FFC0028EB
:10409000EED020460FB030BD0224FAE728490222B4
:1040A000244812F021FE0024F3E726490222F7E714
:1040B000254890F8CC31002BDAD091ED060AE83093
:1040C0000DF04AFD0028EED1D2E791ED000A194823
:1040D000FEF76AF9F6E7D1ED017AFCEEE77ACDED6D
:1040E000037AD1ED007AFCEEE77ACDED047AD1EDDA
:1040F000047A9DF81020FCEEE77ACDED057A9DF864
:1041000014300193D1ED027AFCEEE77A17EE903A83
:104110009BB2009391ED030A9DF80C30017C064898
:104120000AF0F6F80446B4E7488000205C780020E6
:1041300000000034702B0020588C0020706B002091
:104140009478002078780020708B00202DE9F041D1
:104150002DED028B4FF0000882B0CDE900281E4FF4
:104160009FED1E8A0C461546B0EE480AB1F90220B2
:10417000D7F8781C4FF47A7306465FF091FF01235D
:10418000CDE90053B4F90020D7F87C1CB0EE480A02
:1041900030464FF47A735FF083FFB4F90420D7F808
:1041A000801C9FED0F0A43463046CDE900585FF072
:1041B00077FFCDE90058B4F90620D7F8841CB0EE9B
:1041C000480A4FF47A7330465FF06AFF02B0BDECE4
:1041D000028BBDE8F08100BF704B00200000FA4464
:1041E00000007A4438B5C5780B46352D044628BF03
:1041F0003525352200211846C0F024FF2A4604F157
:104200000C01BDE83840C0F0F5BE000070B58A7AF8
:104210004B7A43EA0223CA7A43EA0243562B98B008
:1042200005460C4600F0EE800BD8522B25D0542BBF
:1042300000F0A8802146284618B0BDE8704061F023
:1042400015B9872B0FD8852B0FD86D2BF2D10821EC
:10425000954812F043FF21460246284618B0BDE8B3
:1042600070405DF009B9A62BF0E70A46017C8F4843
:1042700018B0BDE8704053F065B98D4B03F554623A
:10428000D3F8D03E93427BD1CD78272D28BF272568
:10429000272200210AA8C0F0D5FE2A4604F10C010D
:1042A0000AA8C0F0A7FE0B9B9DF84E4003930C9B01
:1042B0000493E4430D9B0593E4B20E9B06938DF8A3
:1042C0004E4095F039F914F0810F04F08705064649
:1042D00001D1802D13D103A82EF0FEF8DFED757A01
:1042E000754B20EE270ADFED757AC3F8546420EE93
:1042F000270ABDEEC00A10EE102AC3F8482414F0B5
:10430000820F01D1802D13D103A82EF0FFF8DFED2D
:10431000697A694B20EE270ADFED687AC3F85864A2
:1043200020EE270ABDEEC00A10EE102AC3F84C2476
:1043300014F0840F01D1802D13D103A82EF0F6F8CC
:10434000DFED5C7A5C4B20EE270ADFED5C7AC3F888
:104350005C6420EE270ABDEEC00A10EE102AC3F8F6
:10436000502463060CD5DDED127A9FED547A524B42
:1043700067EE877A03F58C62C2ED007AC3F8646455
:1043800018B070BD20464A4C0AA9FFF72BFFD4F89D
:10439000D02E04F554639A42F2D19DF85C30072B7D
:1043A000EED104F58054DDED0D6AD4F8983F9FED11
:1043B000437A07EE903AF8EEE77AE6EEC77AFDEE3A
:1043C000E77A17EE903AC4F8983F5FF0C3FFD4F84D
:1043D000702FD4F8983F52689FED397A9B1A07EEF8
:1043E000903AF8EEE77A054667EE877A17EE900A7C
:1043F000FCF78AF8334ACDE900010621284659F036
:104400003FFDBDE72A4B03F55462D3F8D03E9342FB
:10441000B6D10AA92046FFF7E5FE1C22002103A819
:10442000C0F010FE05A81EF071F8BDF8583023F05A
:1044300004039BB2002BA3D0DDED0D7A9FED1F7A14
:104440009DF8143067EE877A23F00503FDEEE77AD6
:104450008DF814309DF85C30CDED067A0B2B1BD80F
:10446000DFE803F00C1A1A1A1A0C061A1A1A1A1391
:104470009DF8143043F001038DF814302B6803A924
:10448000D3F8E430284698477AE79DF8143023F0B3
:10449000050343F00503EFE75FF05CFF0A4A0421E0
:1044A00059F0EEFC6CE700BF702B00203881002033
:1044B000706B0020E02E6542707B00200000C84237
:1044C0000AD7233C70950D0883950D0810B5074B4E
:1044D00093F9C82540F24D3440F24D13002A08BF2D
:1044E0001C465CF00BF8204310BD00BF707B002021
:1044F0007FB518F0EFFC17F02FFDF0EE607AF1EECB
:10450000400AB1EE670ABEF0A9FBDFED097A20EEA2
:10451000270A2BF007F9F6EE007A20EE270AFCEEC8
:10452000C07ACDED017A9DF8040007B05DF804FB78
:10453000E02E654210B504461EF09AFB204610BDE1
:1045400008B51B482DED028B0CF0E8FBB2EE048A97
:10455000F8B117480CF078FAC0B1164BD3F8240123
:1045600003689B689847DFED147AB4EEE70AF1EE32
:1045700010FA58BFB0EE670AC0EE087ABDEC028BA5
:10458000FCEEE77A17EE903A98B208BD9FED0B0A61
:10459000F2E70B4BDFED087A93ED007AB4EEE77AA1
:1045A000F1EE10FA58BFB0EE677AC7EE087AE5E789
:1045B000588C0020708B002000FF7F470000000017
:1045C000907F002010B50C4C002384F83C3460F040
:1045D000A7FEA4F58052A4F54573D2F8D02E9A42D6
:1045E00008D194F8DC342BB904F59B60BDE8104089
:1045F00031F04CBB10BD00BF707B002013B5124CD6
:1046000094F8BA1F04F66C6016F0D4F878B194F8F8
:10461000BA1F04F66C6016F025FB40B194F8BA1F7F
:1046200004F66C6002B0BDE8104016F061BB18F0F3
:1046300051FC01A918F00CFB18B19DED010A02B064
:1046400010BD9FED020AFAE7703B00200000000059
:1046500038B50D4624F07EFE90F8D012B02303FB4F
:104660000101BC310E4803F003FE0446A8B13DB180
:1046700018F030FC90F8CC3243F0020380F8CC32D2
:10468000084BD3F8D00E03F60852904203D003F63D
:104690000863984201D106F00BFE204638BD00BFEA
:1046A000702B0020706B002037B51546019118F073
:1046B00011FC01991AF0B6F80446A8B13DB118F002
:1046C00009FC90F8CC3243F0020380F8CC32084B5E
:1046D000D3F8D00E03F60852904203D003F60863D5
:1046E000984201D106F0E4FD204603B030BD00BF82
:1046F000706B002008B5084BD3F8102B002A03DCA0
:10470000BDE808405BF06ABE03F6142058F006FFCF
:1047100090ED000A08BD00BF704B0020044B93F8D9
:10472000CC0120B1D3F8E40103681B6B1847704734
:10473000708B002008B51248D0F8D02E00F55663D3
:104740009A4216D0B0F9E83EABB900F5805393F821
:10475000DD2382B990F8E52E6AB993F89D3463B9E8
:10476000A0F5804006F0A4F900280CBF0320042027
:1047700008BD0220FCE70520FAE70620F8E700BFA5
:10478000706B002010B5224B03F67C52D3F8D03E5C
:10479000934290B0044638D000231E4802931DF087
:1047A000A5FE014618B91B4802AA1DF0EBFE247CA9
:1047B00094F0C2FE184BDDED027AD3F89C2FD3F8AB
:1047C000A03F05930023F8EEE77A9FED147A079354
:1047D000089309930A930B930C930D930E934FF642
:1047E000F853ADF83C300023CDE9030267EE877A39
:1047F00096228DF83E303323CDE90032572103AAAB
:104800002046CDED067A5AF06BFB10B010BD00BF0C
:10481000706B0020048B0020707B00200AD7233CA3
:104820001FB513480CF07AFAA0B1124B9FED120A93
:10483000D3F81C0148302EF03DF9DFED107A21EE5F
:10484000271AFCEEC17A17EE900AC0F3470005B0B4
:104850005DF804FB0A4BD3F8E80603681B69984728
:104860002AF0CAFFC82390FBF3F0C0B2EFE700BF05
:10487000588C0020708B00209F0CB3450AD7233C36
:10488000705B002010B52DED028B84B018F022FB78
:10489000044668461DF03AFE6946204617F024FBA0
:1048A0001D480CF03BFA1D4B18B3D3F8D01E03F68D
:1048B000985291422ED003F50053DDED017AD3F8E2
:1048C0002031986893EDCB8AF8EEE78A7FF014FCEC
:1048D00038EE408A9FED120A38EE288A28EE008AC8
:1048E000BDEEC88A18EE103A18B204B0BDEC028BC7
:1048F00010BDD3F8182F019B9FED097A134407EEE2
:10490000903AF8EEE77A67EE877AFDEEE77A17EEEF
:10491000903AE9E70020E8E7588C0020706B00200F
:104920000AD7233C10B560F0B5FF044688B90A48A1
:10493000A0F58052A0F54573D2F8D02E80F83C4403
:104940009A4206D190F8DC341BB900F59B6031F037
:104950009DF9204610BD00BF707B00202DE9F0437B
:104960002DED068B914CD4F8D02E04F67C539A4250
:1049700091B0054600F0E6808D48DFED8E8ADFEDD0
:104980008E9A9FED8E9A0CF0C9F9002867D088485E
:104990000CF05AF8002862D004F500589FED880A00
:1049A000D8F81C0148302EF085F808F1F400B0EE7C
:1049B00060AAB0EE418ACDED070A8DED081AF0EE3F
:1049C00040AA8DED060A7FF095FBD8F8203101460C
:1049D000D3F82823D3F82433059204A804932DF0A8
:1049E000C1F809A88DED090AB0EE680ACDED0A0AF2
:1049F0002DF0C8F828EE288A02A8BDEEC88A95F8DE
:104A00001090CDED030A18EE103A8DED020A1EB299
:104A10002DF02CF9DFED6B7A20EE270A02A8BDEE0F
:104A2000C00A6AEEA8AA10EE103A1FB22DF068F97B
:104A3000B4EEE90AF1EE10FA58BFB0EE690ABCEE26
:104A4000C00AD4F8D02E10EE103A9DB204F6985356
:104A50009A422AEE28AA7AD1DFED5B8A82E05B4F88
:104A600095F81080D7F8E89607F500574846D7F82C
:104A7000C83407EE903AD7F8CC34F8EEE7AA07EE40
:104A8000903AD9F800309B68B8EEE7AA984707EE4D
:104A9000900AF8EEE77A484667EEA87A07F5846749
:104AA000FDEEE77A04F60C7417EE903A1EB2D9F8D0
:104AB00000301B69984707EE900AF8EEE77A97ED09
:104AC000008A67EEA87AB4EEE98AFDEEE77AF1EEA5
:104AD00010FA17EE903ADFED387A1DB2E36858BF4E
:104AE000B0EE678A07EE903AF8EEE77AD9F8003030
:104AF0006AEEA8AA2AEE28AA67EEA88AD4ED007A60
:104B00005B69484627EE899A9847BCEEC88AB72168
:104B100018EE103AADF83C301A23CDE90031CDED56
:104B200009AA8DED0AAACDED0B8A8DED0C9A8DEDBB
:104B30000D0AADF83860ADF83A5009AA3E2140465A
:104B40005AF0CEF911B0BDEC068BBDE8F083D8F871
:104B50002031986893EDCB8A7FF0CEFA38EE400A88
:104B600060EE288AD8F8243104F60C74D4ED007A6B
:104B7000186927EE899A84F06DF8B7221A23CDE9D7
:104B80000032CDED09AA8DED0AAACDED0B8A8DED8F
:104B90000C9A8DED0D0AADF83860ADF83A70ADF8AD
:104BA0003C5009AA3E214846CAE700BF706B00206E
:104BB000588C00200AD7233C00FF7F470000C842E2
:104BC0009F0CB345E02E654200000000705B0020A2
:104BD00001480BF04BBF00BF588C002008B5034BB9
:104BE000D3F8D00E03685B68984708BD706B00204F
:104BF00030B587B0054618F06DF904462D7C94F069
:104C00008FFCD4F8D422D4F8D83204920593002132
:104C10001023CD22CDE900320290039102AA42F680
:104C20000C3128465AF05CF907B030BD10B52DEDB7
:104C3000028B88B0044618F04DF917F08DF9F0EEAC
:104C4000607A8DED020ACDED030AF1EE400AB1EE75
:104C5000670A8DED041A247CBEF000F802A8B0EEBD
:104C6000408A2EF0ABFBDFED0B7A049B079328EE16
:104C7000278A0C230122CDE90032A82105AA20466B
:104C80008DED058A8DED060A5AF02AF908B0BDECC3
:104C9000028B10BDE02E6542372938B5054606D097
:104CA00007D824291DD027290ED0192907D101247E
:104CB00010E03A2929D04A29F9D039291BD02846B1
:104CC000BDE838405FF08EBC122159F0DFFA04468F
:104CD00010B90024204638BD297C0E4852F038FB1C
:104CE000F8E70C2159F0D2FA04460028F1D0284602
:104CF000FFF79CFFEEE7102159F0C8FA04460028A0
:104D0000E7D02846FFF774FFE4E7017C024887F00C
:104D100097FDCCE738810020D4890020F0B52DED37
:104D2000028B05468DB01646B0EE408A0C4600292F
:104D300030D0007C5AF056F80746287C5AF08AFF9B
:104D400000F121039F4207D2287C0DB0BDEC028BFD
:104D5000BDE8F04059F088BA63690893236A226974
:104D6000CDF82530E369A069E1680792CDF82930D4
:104D70006222212327680590CDE900320691287C24
:104D80000397192303AAC2218DED048A8DF82460AC
:104D90005AF0A6F80DB0BDEC028BF0BDF8B54C4C46
:104DA000D4F8D02E04F67C539A42054600F08E804B
:104DB000A4F50056B6F8AA31DF0713D545480DF023
:104DC0000FF900287BD004F50054D4F81C010368C7
:104DD0009B68984700F18C0191ED010A0122284659
:104DE000FFF79CFFB6F8AA319C0712D539480DF0A1
:104DF000F7F8002866D0384BD3F81C010368DB684D
:104E0000984700F18C0191ED010A02222846FFF734
:104E100085FFB6F8AA31580712D52E480DF0E0F8F4
:104E2000002851D02C4BD3F81C0103681B6998470C
:104E300000F18C0191ED010A03222846FFF76EFF75
:104E4000B6F8AA31190708D524490B4693ED000A94
:104E5000043905222846FFF761FFB6F8AA31DA06C1
:104E600018D51F4FD7F8B434042B13D118F032F8EB
:104E700016F0F4FE044607F6646087F011FD94ED29
:104E8000020ADFED187A014620EE270A062228469C
:104E9000FFF744FFB6F8AA319B0617D50D480DF071
:104EA0009FF898B10C4BD3F82011284691EDA80A31
:104EB000BDE8F840042201F52771FFF72FBFA4F6E3
:104EC0005C6189E708499EE70849B3E7F8BD00BF80
:104ED000706B0020588C0020708B00201060002028
:104EE000707B0020E02E6542545E0020B45F0020FD
:104EF00030B5054685B00C46D1E904012BF0AAFD7A
:104F000040B168461DF002FB6A46214628465EF025
:104F1000A7FF08B9022055E0D4ED037A9FED2A7A65
:104F20009DF800302949F0EEE77AF4EEC77AF1EE09
:104F300010FA54BF0122002262F3410368468DF843
:104F400000301DF011FC0028E4D1D4ED017AFDEE13
:104F5000E77A17EE903AD90706D41D4B03F5546251
:104F6000D3F8D03E93422CD102221A491A4811F0AC
:104F7000BBFE9DF80030DA070AD5184AD2F8702F28
:104F80005168019A6FF300030A4401928DF80030D2
:104F90001148694603F0BEF894ED020AB4EE400AE7
:104FA000F1EE10FA0BD6B5EEC00AF1EE10FA06DDFE
:104FB0009DF800100748C1F3400107F0F1F9002007
:104FC00000E0042005B030BD00000034F48A002069
:104FD000706B0020B0780020702B0020707B0020C8
:104FE0002DE9F0412DED028B8B8B4AF2F972934241
:104FF0000D4675D04AF2FA72934200F0E4804AF20C
:10500000F872934240F03C819F4FD7F8D02E07F5BD
:1050100054639A4240F03681D1ED007AFDEEE77A92
:1050200017EE903A0BB1022029E0A7F5005391ED5D
:10503000010AB3F9E02007EE902AF8EEE77AB4EE21
:10504000E70AF1EE10FAEEDCB3F9DE3007EE903A43
:10505000F8EEE77AB4EEE70AF1EE10FAE3D49FED4A
:105060008B8A07F5805620EE088A06F58D68D8ED04
:10507000000AB0EE480A2AF0D9FA20B10020BDECAF
:10508000028BBDE8F08188ED008A94F055FAC6F8ED
:105090007004D5ED027A9FED7E7AF0EEE77AF4EEB9
:1050A000477A9FED7C7AF1EE10FA07F6047248BF5A
:1050B000F0EE477A92ED007A06F26C4306F58D66C3
:1050C000B8EEC77AD6ED006AC3ED007AF4EEC76A8F
:1050D000F1EE10FAD2D5F1EE677AC3ED007ACDE7A2
:1050E000694CD4F8D02E04F554639A4240F0CA803B
:1050F00091ED060AFFEE000A2AF098FA002892D1F4
:10510000DFED650A95ED060A2AF090FA00288AD1AB
:1051100095ED068ADFED5D8A95F8203068EE288AE5
:10512000002B43D0032B7FF47EAF04F5805404F2B0
:105130007444D4F8FC3A94ED000A93ED018AB8EE79
:10514000C88A38EE288AF0EE480A2AF06FFA00285A
:1051500094D184ED008A514C95F8203084F8843441
:10516000D4F8883FC4F8783494F0E6F9C4F88004A1
:10517000D5ED027A9FED467AF0EEE77AF4EE477AC3
:105180009FED447AF1EE10FA04F6887148BFF0EE14
:10519000477A91ED007A04F27C4304F27442B8EE4F
:1051A000C77AD2ED006AC3ED007A8FE73C4CF0EE8F
:1051B000680A94ED000A2AF039FA00287FF45EAFFD
:1051C000C4ED008AC7E7304CD4F8D02E04F5546300
:1051D0009A4257D191ED010AB5EEC00AF1EE10FAEC
:1051E0003FF521AFDFED2F7AB4EEE70AF1EE10FACA
:1051F000BFF619AF2AF0ACFA9FED2B8A04F5805464
:1052000020EE088A04F59163D3ED000AB0EE480A57
:105210002AF00CFA00287FF431AFD5ED007AFDEECC
:10522000E77A17EE903A23BB012384F8943404F60E
:1052300084730FCB04F6747686E80F001B4872F077
:1052400069F804F5916383ED008AD5ED027A9FED4C
:10525000187AF4EEC77AF1EE10FAD8BFF0EE477A7A
:1052600004F28C43C3ED007A94F066F9C4F890041C
:1052700004E7012B7FF4D7AE022384F89434DDE7F2
:105280000320FCE60420FAE6706B00200000C84210
:105290000000003400007A4400000000707B002011
:1052A000E47F00200000B44335FA8E3CF056002025
:1052B000CDCC4C3D10B48B8BC02B04460A4612D08B
:1052C00007D8202B13D0204611465DF8044B5EF022
:1052D000BFBE03F5B04308339BB2022BF3D85DF891
:1052E000044BFFF77DBE5DF8044BFFF701BE0420C1
:1052F0005DF8044B7047000000207047C8207047DD
:1053000001207047002070470020704790F88830D7
:105310008B4286BF00EB8100D0F88C0000207047E4
:1053200090F888308B4286BF00EB8100D0F88C006B
:105330000020704703207047014B93F8020170472B
:10534000704B002038B5044656480FF0EFFF18B1F7
:10535000A36943F40003A36152480FF0E7FF88B14B
:10536000462062F043FCDFED507AB4EEE70AF1EE3E
:1053700010FA07D8E36943F40003E361236A43F4B6
:1053800000032362A369494D43F4F843A361D5F8B0
:10539000D00E03685B6898470138182817D8DFE8F3
:1053A00000F04E560D5856565656164E4E4E4E4E10
:1053B0004E16565656564E56584E4E003C4A92F889
:1053C000C834002B43D092F8C924002A42D0A369E4
:1053D00043F48033A361E36943F48033E361D5F898
:1053E000F05E94F0A9F8401BC7289EBF236A43F4DF
:1053F000803323622F4B93F8603E012B3BD0022B6E
:1054000042D02D4B1D68CDB1192128464CF0E4F84F
:10541000A0B1A36943F48073A361284B93F9A83129
:105420001BB1E36943F48073E361192128464CF012
:105430000BF918B1236A43F48073236238BDD4E9B1
:10544000072342F4E04243F4E043E2612362012394
:1054500000E00023E16941F48062E261226A42F4E3
:1054600080602062002BB2D041F4406142F440627F
:10547000E1612262ABE7A36943F48003A361E369BE
:1054800043F48003E361BCE7A36943F48003A361B1
:10549000E36943F48003E361236A43F480032362F6
:1054A000AFE700BF702B0020000000B4706B00203D
:1054B000705B0020707B002054920020704B002015
:1054C00013B54FF4F470CDE900211DF0CBFB044679
:1054D00028B1DDE900215FF05DFB024B236020462F
:1054E00002B010BD80970D082DE9F04190B0002367
:1054F000039300F5A04303F2CC4353F8042C07EECA
:10550000902AF8EEE77A00F5C148CDED017AD3EDA7
:10551000007A08F16808F8EEE77A04464046CDEDD7
:10552000027A0BF0FBFB04F5C046002800F09D80DA
:10553000D6F81C3160330FCB0CAF87E80F0008ADF5
:1055400004AF85E80F0087E80F0001A903AB02AAAA
:1055500038462DF005F89FED480A01A82DF0FEFA17
:10556000D6F8540301A915F0EBFE93F0E5FFD6F849
:10557000E031C01A04F53255632805F1100528D82A
:10558000D6F81C0103689B689847042100F18C023F
:10559000284654F0D9F9D6F81C010368DB6898470F
:1055A000052100F18C02284654F0CEF9D6F81C01F2
:1055B00003681B699847062100F18C02284654F0C5
:1055C000C3F9D6F82021072102F52772284654F0A6
:1055D000BBF940460CF004FD90B1D6F8200183F0F1
:1055E00059F868B1D6F8202169219032284654F044
:1055F000ABF9D6F820216A21B832284654F0A4F934
:1056000004F5465224326421284654F09DF904F5ED
:105610004B5224326521284654F096F904F5405344
:1056200093F9222332B9D3EDC67AF5EEC07AF1EEC2
:1056300010FA06DD04F5515204326621284654F072
:1056400083F904F551542C3420467AF05FF828B1E0
:1056500004F130026821284654F076F917F03AFC3C
:1056600017F01EFC10B0BDE8F08104F59D5001A9B3
:10567000103015F013FD78E79F0CB34510B54FF4CB
:105680008011044611F02AFD20B12046BDE81040EB
:10569000FFF72ABF10BD000030B500F59D558FB053
:1056A00010350023694604462846009317F0D0FAC7
:1056B00001A9284616F07AFB08B92F4B01932F2237
:1056C000002102A8BFF0BEFCA3238DF8083095236B
:1056D0008DF8093093F038FF04F5A042CDF80B00A7
:1056E000D2F8C834ADF8133004F58053D2F8CC2486
:1056F000CDF80F104620D3F8AC15D3F8B035ADF87F
:105700001510ADF81720ADF8193062F06FFA10EEF1
:10571000103A1520CDF81B3062F068FA10EE103AFE
:10572000CDF81F3004F538539FED147AD3ED357A58
:1057300067EE877A05F5577017EE903ACDF823306B
:10574000009BCDF82730019BCDF82B3017F076FE6B
:1057500010EE103ACDF82F3004F5804304F53250A6
:10576000D3F8143FCDF833302F2202A9103054F073
:10577000B5FA0FB030BD00BF2292CA7F0000C84208
:1057800010B58AB004462422002101A8BFF05AFCBB
:10579000A3238DF8043095238DF805300A238DF866
:1057A000063093F0D1FE04F5A043CDF80B1003F5BD
:1057B0008D61D1ED007A9FED177ACDF8070003F2E5
:1057C0006C4167EE877A0968CDF8131003F27441D3
:1057D00017EE902A0968CDF8171003F27C4104F502
:1057E00032500968CDF81B1093F884148DF81F10FF
:1057F00003F5916103F28C4309681B68CDF80F2013
:105800000891242201A91030099354F067FA0AB0D4
:1058100010BD00BF0AD7233CF0B58FB00446352237
:1058200000216846BFF00EFCA3238DF800309523BD
:105830008DF80130012304F5A0458DF8023093F076
:1058400083FE04F5405605F58463CDF803001B681C
:10585000D6F8E806CDF80710CDF80B3003681B69C1
:105860009847ADF80F00D6F8E80603689B6898479C
:1058700004F58047ADF81100D7F8183FD6F8E806D0
:10588000ADF8133003685B69984710EE103AD6F80C
:10589000E806CDF8153003689B69984710EE103A7A
:1058A000CDF8193007F60C7304F532501B68CDF8AB
:1058B0001D30D5F89C3FCDF82130D5F8A03FCDF86C
:1058C0002530D5F8983FCDF8293004F5C04335226E
:1058D000D3F88035CDF82D306946D7F8043FCDF8A0
:1058E0003130103054F0FAF90FB0F0BD30B587B058
:1058F0001622044600216846BFF0A4FBA3238DF8BE
:10590000003095238DF8013002238DF8023093F09A
:105910001BFE04F5A045CDF803002046CDF8071086
:1059200005F0C6F805F597638DF80B001B68039327
:10593000134B1B68586D90F89C308DF8103003683D
:105940001B6A984795F89D348DF812308DF8110038
:1059500029F01EFA28F06AFAD5F8B4348DF813004D
:1059600004F532508DF81430162295F89E348DF8D7
:1059700015306946103054F0B1F907B030BD00BFA2
:105980006C2B002010B58AB023220446002101A808
:10599000BFF058FBA3238DF8043095238DF8053014
:1059A00009238DF8063093F0CFFDCDF807000420D1
:1059B000CDF80B1062F01AF910EE103A1320CDF862
:1059C0000F3062F013F910EE103A4620CDF8133084
:1059D00062F00CF910EE103A1520CDF8173062F095
:1059E00005F910EE103A0320CDF81B3062F00EF9E5
:1059F00010EE103ACDF81F3004F59E431C3304F529
:105A000032501B68CDF82330232201A9103054F006
:105A100065F90AB010BD000013B5044600F5325018
:105A20001030019053F0DCFB019853F071FC04F549
:105A30008053019893F9D8310BB153F031FD2046D2
:105A400002B0BDE81040FFF79DBF000038B500F57B
:105A5000804200F59A43D2F8D02E40339A42044651
:105A600026D100F5A045D5F8903443B100F5305269
:105A700000F532500C320821103053F065FF05F26A
:105A80007443DFED0C7A93ED007AB4EEE77AF1EE31
:105A900010FA08DA05F58D6595ED007AB4EEE77A2F
:105AA000F1EE10FA04DB2046BDE83840FFF768BE8F
:105AB00038BD00BF0000003430B500F5C04300F52C
:105AC000325593F8CC2189B00446103552B1D3F841
:105AD00014011E22694684F09BFC10496A46284640
